{
  "contractName": "Flipcoin",
  "abi": [
    {
      "anonymous": false,
      "inputs": [
        {
          "indexed": false,
          "internalType": "string",
          "name": "messageToGambler",
          "type": "string"
        }
      ],
      "name": "fightResult",
      "type": "event"
    },
    {
      "anonymous": false,
      "inputs": [
        {
          "indexed": false,
          "internalType": "string",
          "name": "messageToGambler",
          "type": "string"
        },
        {
          "indexed": false,
          "internalType": "uint256",
          "name": "toTransfer",
          "type": "uint256"
        }
      ],
      "name": "fundsSentToGambler",
      "type": "event"
    },
    {
      "anonymous": false,
      "inputs": [
        {
          "indexed": false,
          "internalType": "address",
          "name": "adr",
          "type": "address"
        }
      ],
      "name": "gamblerRegistered",
      "type": "event"
    },
    {
      "constant": true,
      "inputs": [],
      "name": "balance",
      "outputs": [
        {
          "internalType": "uint256",
          "name": "",
          "type": "uint256"
        }
      ],
      "payable": false,
      "stateMutability": "view",
      "type": "function"
    },
    {
      "constant": true,
      "inputs": [
        {
          "internalType": "uint256",
          "name": "",
          "type": "uint256"
        }
      ],
      "name": "creators",
      "outputs": [
        {
          "internalType": "address",
          "name": "",
          "type": "address"
        }
      ],
      "payable": false,
      "stateMutability": "view",
      "type": "function"
    },
    {
      "constant": true,
      "inputs": [],
      "name": "owner",
      "outputs": [
        {
          "internalType": "address",
          "name": "",
          "type": "address"
        }
      ],
      "payable": false,
      "stateMutability": "view",
      "type": "function"
    },
    {
      "constant": false,
      "inputs": [],
      "name": "depositFunds",
      "outputs": [],
      "payable": true,
      "stateMutability": "payable",
      "type": "function"
    },
    {
      "constant": false,
      "inputs": [
        {
          "internalType": "bool",
          "name": "betOnScorpion",
          "type": "bool"
        }
      ],
      "name": "startFight",
      "outputs": [
        {
          "internalType": "bool",
          "name": "winning",
          "type": "bool"
        }
      ],
      "payable": true,
      "stateMutability": "payable",
      "type": "function"
    },
    {
      "constant": true,
      "inputs": [],
      "name": "getGamblerData",
      "outputs": [
        {
          "internalType": "uint256",
          "name": "won",
          "type": "uint256"
        },
        {
          "internalType": "uint256",
          "name": "lost",
          "type": "uint256"
        },
        {
          "internalType": "uint256",
          "name": "fights",
          "type": "uint256"
        }
      ],
      "payable": false,
      "stateMutability": "view",
      "type": "function"
    },
    {
      "constant": true,
      "inputs": [],
      "name": "getContractBalance",
      "outputs": [
        {
          "internalType": "uint256",
          "name": "",
          "type": "uint256"
        }
      ],
      "payable": false,
      "stateMutability": "view",
      "type": "function"
    },
    {
      "constant": false,
      "inputs": [],
      "name": "withdrawAll",
      "outputs": [
        {
          "internalType": "uint256",
          "name": "",
          "type": "uint256"
        }
      ],
      "payable": false,
      "stateMutability": "nonpayable",
      "type": "function"
    }
  ],
  "bytecode": "0x608060405267016345785d8a0000600255336000806101000a81548173ffffffffffffffffffffffffffffffffffffffff021916908373ffffffffffffffffffffffffffffffffffffffff160217905550610ab08061005f6000396000f3fe60806040526004361061007b5760003560e01c8063981d265d1161004e578063981d265d14610175578063b69ef8a8146101ae578063cd53d08e146101d9578063e2c41dbc146102545761007b565b80630dbc8428146100805780636f9fb98a146100c8578063853828b6146100f35780638da5cb5b1461011e575b600080fd5b6100ae6004803603602081101561009657600080fd5b8101908080351515906020019092919050505061025e565b604051808215151515815260200191505060405180910390f35b3480156100d457600080fd5b506100dd610479565b6040518082815260200191505060405180910390f35b3480156100ff57600080fd5b50610108610483565b6040518082815260200191505060405180910390f35b34801561012a57600080fd5b5061013361053b565b604051808273ffffffffffffffffffffffffffffffffffffffff1673ffffffffffffffffffffffffffffffffffffffff16815260200191505060405180910390f35b34801561018157600080fd5b5061018a610560565b60405180848152602001838152602001828152602001935050505060405180910390f35b3480156101ba57600080fd5b506101c361063e565b6040518082815260200191505060405180910390f35b3480156101e557600080fd5b50610212600480360360208110156101fc57600080fd5b8101908080359060200190929190505050610644565b604051808273ffffffffffffffffffffffffffffffffffffffff1673ffffffffffffffffffffffffffffffffffffffff16815260200191505060405180910390f35b61025c610680565b005b60006002548034101561027057600080fd5b6000349050806001600082825401925050819055506000610290336106eb565b600360003373ffffffffffffffffffffffffffffffffffffffff1673ffffffffffffffffffffffffffffffffffffffff168152602001908152602001600020600001600081548092919060010191905055506102ec8583610793565b905080156103b357600360003373ffffffffffffffffffffffffffffffffffffffff1673ffffffffffffffffffffffffffffffffffffffff168152602001908152602001600020600101600081548092919060010191905055507f5498e241ab6da43eb6256fbd33f682c706cc175d12605b15846b0276470815356040518080602001828103825260068152602001807f77696e6e6572000000000000000000000000000000000000000000000000000081525060200191505060405180910390a161046e565b600360003373ffffffffffffffffffffffffffffffffffffffff1673ffffffffffffffffffffffffffffffffffffffff168152602001908152602001600020600201600081548092919060010191905055507f5498e241ab6da43eb6256fbd33f682c706cc175d12605b15846b0276470815356040518080602001828103825260058152602001807f6c6f73657200000000000000000000000000000000000000000000000000000081525060200191505060405180910390a15b809350505050919050565b6000600154905090565b60008060009054906101000a900473ffffffffffffffffffffffffffffffffffffffff1673ffffffffffffffffffffffffffffffffffffffff163373ffffffffffffffffffffffffffffffffffffffff16146104de57600080fd5b6000600154905060006001819055503373ffffffffffffffffffffffffffffffffffffffff166108fc829081150290604051600060405180830381858888f19350505050158015610533573d6000803e3d6000fd5b508091505090565b6000809054906101000a900473ffffffffffffffffffffffffffffffffffffffff1681565b600080600080339050600360008273ffffffffffffffffffffffffffffffffffffffff1673ffffffffffffffffffffffffffffffffffffffff16815260200190815260200160002060010154600360008373ffffffffffffffffffffffffffffffffffffffff1673ffffffffffffffffffffffffffffffffffffffff16815260200190815260200160002060020154600360008473ffffffffffffffffffffffffffffffffffffffff1673ffffffffffffffffffffffffffffffffffffffff1681526020019081526020016000206000015493509350935050909192565b60015481565b6004818154811061065157fe5b906000526020600020016000915054906101000a900473ffffffffffffffffffffffffffffffffffffffff1681565b6000809054906101000a900473ffffffffffffffffffffffffffffffffffffffff1673ffffffffffffffffffffffffffffffffffffffff163373ffffffffffffffffffffffffffffffffffffffff16146106d957600080fd5b34600160008282540192505081905550565b600080905060008090505b600480549050811015610780576004818154811061071057fe5b9060005260206000200160009054906101000a900473ffffffffffffffffffffffffffffffffffffffff1673ffffffffffffffffffffffffffffffffffffffff168373ffffffffffffffffffffffffffffffffffffffff16141561077357600191505b80806001019150506106f6565b508061078f5761078e6107ff565b5b5050565b60008061079e61095b565b90508080156107b1575060011515841515145b156107c9576107bf83610987565b60019150506107f9565b801580156107db575060001515841515145b156107f3576107e983610987565b60019150506107f9565b60009150505b92915050565b610807610a5a565b600033905060008260000181815250506000826020018181525050600082604001818152505081600360008373ffffffffffffffffffffffffffffffffffffffff1673ffffffffffffffffffffffffffffffffffffffff16815260200190815260200160002060008201518160000155602082015181600101556040820151816002015590505060048190806001815401808255809150509060018203906000526020600020016000909192909190916101000a81548173ffffffffffffffffffffffffffffffffffffffff021916908373ffffffffffffffffffffffffffffffffffffffff160217905550507f25115785f0ac282478739bdaadd17966a61927fe79ba0bc5742c3f7518c4f25c81604051808273ffffffffffffffffffffffffffffffffffffffff1673ffffffffffffffffffffffffffffffffffffffff16815260200191505060405180910390a15050565b6000806002428161096857fe5b069050600181141561097e576001915050610984565b60009150505b90565b6000600282029050806001600082825403925050819055503373ffffffffffffffffffffffffffffffffffffffff166108fc829081150290604051600060405180830381858888f193505050501580156109e5573d6000803e3d6000fd5b507fbdda5ae929d2a24d45220c354ff004fc251d64135954e46c2b37f940d6eb8ecf816040518080602001838152602001828103825260168152602001807f46756e64732073656e7420746f2067616d626c657220000000000000000000008152506020019250505060405180910390a15050565b6040518060600160405280600081526020016000815260200160008152509056fea265627a7a72315820ec95a1a482ac9f64ae4f30d00603828f87bcd956e6c1cae1acb8614e47ffb93264736f6c634300050c0032",
  "source": "import \"./Ownable.sol\";\npragma solidity 0.5.12;\n\ncontract Flipcoin is Ownable{\n\n    struct Gambler {\n        uint fights;\n        uint won;\n        uint lost;\n\n    }\n\n    event gamblerRegistered(address adr);\n    event fightResult(string messageToGambler);\n    event fundsSentToGambler(string messageToGambler, uint toTransfer);\n\n        uint public balance;\n        //uint betDenominator = 0.1 ether;\n        uint betDenominator = 0.1 ether;\n\n    modifier betValue(uint minFunds){\n        require(msg.value >= minFunds);\n        _;\n    }\n\n    /*modifier betValue(uint256 betDenominator){\n        require(msg.value >= betDenominator, \"minimum bet is 0.1 eth\");\n        _;\n    }   */\n    mapping (address => Gambler) private gambler;\n    address[] public creators; //TODO change to private\n    \n    function depositFunds() public payable onlyOwner{\n        balance += msg.value;\n    }\n    \n    function register() private{\n        Gambler memory newGambler;\n        address creator = msg.sender;\n        \n        //This creates a gambler\n        newGambler.fights = 0;\n        newGambler.won = 0;\n        newGambler.lost = 0;\n\n        gambler[creator] = newGambler; //create new gambler entry\n        creators.push(creator); //save gambler's address to creators array\n        emit gamblerRegistered(creator);\n    }\n    \n    function isRegistered(address sender) private{\n        bool userRegistered = false;\n        for (uint i=0; i<creators.length; i++) {\n            if (sender == creators[i]){\n                userRegistered = true;\n            }\n        }\n        //Register before using this contract\n        if(!userRegistered){\n            register();\n        }\n    }\n\n    function startFight(bool betOnScorpion) public payable betValue(betDenominator) returns (bool winning){\n        uint betDeposit = msg.value;\n        balance += betDeposit;\n        bool result;\n        isRegistered(msg.sender);\n        \n        gambler[msg.sender].fights++;\n        result = isWinner(betOnScorpion, betDeposit) ;\n        if (result) {\n            gambler[msg.sender].won++;\n            emit fightResult(\"winner\");\n        }\n        else{\n            gambler[msg.sender].lost++;\n            emit fightResult(\"loser\");\n        }\n        return result;\n    }\n\n    function isWinner(bool betOnScorpion, uint betDeposit) private returns(bool){\n        bool flippedRed = randomFlip();\n        if (flippedRed && betOnScorpion == true){\n            sendFundsToWinner(betDeposit);\n            return true;\n        }\n        else if(!flippedRed && betOnScorpion == false){\n            sendFundsToWinner(betDeposit);\n            return true;\n        }\n        else{\n            return false;\n        }\n    }\n    \n    function randomFlip() private view returns (bool){\n        uint256 random = now % 2;\n        if (random == 1){\n            return true;\n        }\n        return false;\n        }\n\n    function sendFundsToWinner(uint betDeposit) private{\n       uint toTransfer = betDeposit * 2;\n       balance -= toTransfer;\n       msg.sender.transfer(toTransfer);\n       emit fundsSentToGambler(\"Funds sent to gambler \", toTransfer);\n    } \n    \n    function getGamblerData() public view returns(uint won, uint lost, uint fights){\n        address creator = msg.sender;\n        return (gambler[creator].won, gambler[creator].lost, gambler[creator].fights);\n    }\n    \n    function getContractBalance() public view returns (uint){\n        return balance;\n    }\n\n    function withdrawAll() public onlyOwner returns(uint) {\n       uint toTransfer = balance;\n       balance = 0;\n       msg.sender.transfer(toTransfer);\n       return toTransfer;\n    }\n\n}\n",
  "sourcePath": "C:/Users/Davor/Desktop/ETH_ADV/MortalKomDapp - Phase2/contracts/Flipcoin.sol",
  "compiler": {
    "name": "solc",
    "version": "0.5.12+commit.7709ece9.Emscripten.clang"
  },
  "schemaVersion": "3.0.16",
  "updatedAt": "2020-10-17T08:47:14.160Z",
  "devdoc": {
    "methods": {}
  },
  "userdoc": {
    "methods": {}
  }
}